:1000A00075080075095A758920758DE920B01CC343
:1000B000E50994B4E5086480948050080509E509D1
:1000C000700205087FC87E0012013C20B11CD3E5F8
:1000D000099400E508648094804008E509150970DA
:1000E0000215087FC87E0012013CAF09AE0812015C
:1000F0005C8E0A8F0BD290120114C290AE0AAF0B25
:100100007C037DE812006AC374149FFFE49EFE1214
:04011000013C809896
:10013C00E4FDFCC3ED9FEC9E5015E4FBFA0BBB00F9
:0F014C00010ABA04F8BBFBF50DBD00010C80E4FD
:01015B002281
:04011400AB07AA0685
:100118009000007C007D32AF03AE02120015C3E5EB
:10012800829FE5839E500CD28E308FFDC28FC28E87
:03013800A380E0C1
:01013B0022A1
:10015C007C037DE81200037C007DB412006AEF245E
:07016C00E8FFEE3403FE2260
:0300000002017387
:0C017300787FE4F6D8FD75810B0200A037
:10000300EF8DF0A4A8F0CF8CF0A428CE8DF0A42E11
:02001300FE22CB
:10001500BC000BBE0029EF8DF084FFADF022E4CCCF
:10002500F875F008EF2FFFEE33FEEC33FCEE9DEC98
:10003500984005FCEE9DFE0FD5F0E9E4CEFD22EDDE
:10004500F8F5F0EE8420D21CFEADF075F008EF2F28
:10005500FFED33FD4007985006D5F0F222C398FD19
:050065000FD5F0EA22B6
:10006A00C2D5EC30E709B2D5E4C39DFDE49CFCEEB1
:10007A0030E715B2D5E4C39FFFE49EFE120015C314
:10008A00E49DFDE49CFC800312001530D507C3E40F
:06009A009FFFE49EFE2220
:00000001FF
