:0300000002040DEA
:0C040D00787FE4F6D8FD758130020454BD
:0E05B30020534552564F20414E474C452000E4
:100519000114000808000C0008000400001415006C
:100529003F0006005B004F0066006D007D0007007C
:030539007F0067D9
:10053D007FC41205C17F441205A97F451205A97F0D
:10054D00471205A97F521205A97F451205A97F45BE
:03055D000205A9EB
:0804CC00C2A5D2A77F017E004A
:1004D400E4FDFCC3ED9FEC9E5015E4FBFA0BBB005E
:0F04E400010ABA04F8BBFBF50DBD00010C80E462
:0104F30022E6
:10056000D28EE4FDFCC3ED9FEE6480F8EC648098CD
:10057000500C308FFDC28F0DBD00010C80E7C28E84
:010580002258
:100359007F381205C17F0E1205C17F011205C175D3
:100369008920758DE9C290752D157BFF7A0579B3C2
:100379001204F412053DC3E52D648094E840057527
:100389002D15800A20B002052D20B102152D7FC040
:100399001205C1AF2DEF3395E0FEEF24EBFDEE34EE
:1003A900FFFC12010EE4FBFA7920784012000312D7
:1003B90001478E2B8F2C120499E4F529F52AC3E500
:1003C9002A9432E5296480948050ABD290AF2DEF06
:1003D9003395E0FE120560C2907F687E01120560C8
:1003E900AF2C120581D3E52C94B4E52B648094805D
:1003F9004005E4F52BF52C12027A052AE52A70BE90
:04040900052980BA87
:040499008E2E8F2FE5
:10049D007D641205A0AE2EAF2F7C007D641201E1AC
:1004AD008C2E8D2FAE2EAF2F7D0A1205A0AE2EAF46
:0F04BD002F7C007D0A1201E1ED2430FF0205A91A
:0A05C1008F80C2A61204CCC2A7224C
:0905A0007C001201E1EF2430FFA0
:0A05A9008F80D2A61204CCC2A72254
:1004F4008B2E8A2F8930AB2EAA2FA9301201C86007
:10050400130530E5307002052F14F91201C8FF12EB
:0505140005A980E222B0
:100581007D037C00EF601775F00A8474102DF8A6C6
:0E059100F0EF75F00A84FFED1D70E91C80E6A6
:01059F002239
:10027A0074102514F8E6B40A00400302034C9002F5
:10028A008FF82828730202AD0202BE0202CE0202D1
:10029A00DE0202EE0202FE02030E02031E02032E19
:1002AA0002033EE51425E02408F808E6F5A08516C1
:1002BA008002034CE51425E02408F808E6F5A08539
:1002CA001880807EE51425E02408F808E6F5A08564
:1002DA001A80806EE51425E02408F808E6F5A08562
:1002EA001C80805EE51425E02408F808E6F5A08560
:1002FA001E80804EE51425E02408F808E6F5A0855E
:10030A002080803EE51425E02408F808E6F5A0855B
:10031A002280802EE51425E02408F808E6F5A08559
:10032A002480801EE51425E02408F808E6F5A08557
:10033A002680800EE51425E02408F808E6F5A08555
:0F034A0028800514E514D394034003E4F514222E
:10000300EC4D6011E8497017ED33EC3304600DE4F7
:10001300FCFFFEFD22E933E8330470F80201B3125A
:10002300017E58046009E4CC24815006285009025B
:1000330001BD2840030201BAC0E0EB4A7044B98015
:1000430006D0E0FB0201A9EF4E701CBD8008EBFF58
:10005300EAFEE9FD80EBE98DF0A4FEE5F00200EC99
:10006300E9CDF9EAFEEBFFEF89F0A4FCE5F0CE89D8
:10007300F0A42EFFE435F0CD89F0A42DFEE435F095
:100083008067EF4E7005BD80D780C3EF8BF0A4ACC3
:10009300F0EE8BF0A42CFCE435F0F8EF8AF0A42CFE
:1000A300E5F038FCE433CB8DF0A42CFCE5F03BF811
:1000B300EE8AF0A42CFCE5F038F8E433CF89F0A401
:1000C3002CFCE5F038CF3400CE89F0A42FFFE5F007
:1000D3003EFEE433C98DF0A42EFEE5F039CD8AF05F
:1000E300A42FFFE5F03EFEE43DFD33D0E0FB5007D7
:1000F3000BBB000F0201BDEC2CFCEF33FFEE33FE14
:06010300ED33FD02019541
:1001090075F020800E75F010800575F0087D007E71
:10011900007F003392D530D503120217EC3340101B
:10012900EF33FFEE33FEED33FDEC33FCD5F0ED227A
:0E013900E5F0247EA2D513CC92E7CDCEFF22B6
:10014700EDD2E7CD33EC3392D524814006E4FFFEB0
:10015700FDFC22FCE4CFCECDCC24E0501174FF800F
:10016700EDC3CC13CCCD13CDCE13CECF13CF0470AC
:07017700F030D5DE02021793
:10017E00E9D2E7C933E833F892D5EDD2E7CD33ECC7
:07018E0033FC5002B2D52240
:10019500EC30E7100FBF000C0EBE00080DBD0004CB
:1001A5000BEB6014A2D5EB13FCED92E7FD2274FF77
:1001B500FCFDFEFF22E480F8A2D574FF13FC7D80D0
:0301C500E480EFE4
:10041900020359E493A3F8E493A34003F68001F29D
:1004290008DFF48029E493A3F85407240CC8C333E4
:10043900C4540F4420C8834004F456800146F6DFB3
:10044900E4800B0102040810204080900519E47E25
:10045900019360BCA3FF543F30E509541FFEE493A8
:10046900A360010ECF54C025E060A840B8E493A36F
:10047900FAE493A3F8E493A3C8C582C8CAC583CA9A
:10048900F0A3C8C582C8CAC583CADFE9DEE780BE52
:01053C0000BE
:1001C800BB010689828A83E0225002E722BBFE0235
:0901D800E32289828A83E4932268
:1001E100C2D5EC30E709B2D5E4C39DFDE49CFCEE39
:1001F10030E715B2D5E4C39FFFE49EFE120225C38A
:10020100E49DFDE49CFC800312022530D507C3E484
:060211009FFFE49EFE22A7
:0E021700C3E49FFFE49EFEE49DFDE49CFC22F8
:10022500BC000BBE0029EF8DF084FFADF022E4CCBD
:10023500F875F008EF2FFFEE33FEEC33FCEE9DEC86
:10024500984005FCEE9DFE0FD5F0E9E4CEFD22EDCC
:10025500F8F5F0EE8420D21CFEADF075F008EF2F16
:10026500FFED33FD4007985006D5F0F222C398FD07
:050275000FD5F0EA22A4
:00000001FF
